{
  "contractName": "auth_symbol",
  "abi": [
    {
      "inputs": [
        {
          "internalType": "uint256",
          "name": "",
          "type": "uint256"
        }
      ],
      "name": "users",
      "outputs": [
        {
          "internalType": "uint256",
          "name": "userId",
          "type": "uint256"
        },
        {
          "internalType": "uint256",
          "name": "symbolId",
          "type": "uint256"
        },
        {
          "internalType": "bool",
          "name": "exists",
          "type": "bool"
        }
      ],
      "stateMutability": "view",
      "type": "function",
      "constant": true
    },
    {
      "inputs": [
        {
          "internalType": "uint256",
          "name": "userId",
          "type": "uint256"
        },
        {
          "internalType": "uint256",
          "name": "symbolId",
          "type": "uint256"
        }
      ],
      "name": "setSymbol",
      "outputs": [],
      "stateMutability": "nonpayable",
      "type": "function"
    },
    {
      "inputs": [
        {
          "internalType": "uint256",
          "name": "userId",
          "type": "uint256"
        },
        {
          "internalType": "uint256",
          "name": "symbolId",
          "type": "uint256"
        }
      ],
      "name": "checkSymbol",
      "outputs": [
        {
          "internalType": "bool",
          "name": "",
          "type": "bool"
        }
      ],
      "stateMutability": "view",
      "type": "function",
      "constant": true
    },
    {
      "inputs": [
        {
          "internalType": "uint256",
          "name": "userId",
          "type": "uint256"
        }
      ],
      "name": "userExists",
      "outputs": [
        {
          "internalType": "bool",
          "name": "",
          "type": "bool"
        }
      ],
      "stateMutability": "view",
      "type": "function",
      "constant": true
    }
  ],
  "bytecode": "0x608060405234801561001057600080fd5b506103d6806100206000396000f3fe608060405234801561001057600080fd5b506004361061004c5760003560e01c8063365b98b2146100515780636f93dd9114610083578063913167e7146100b3578063fb2e8004146100cf575b600080fd5b61006b600480360381019061006691906102b7565b6100ff565b60405161007a9392919061030e565b60405180910390f35b61009d600480360381019061009891906102b7565b610136565b6040516100aa9190610345565b60405180910390f35b6100cd60048036038101906100c89190610360565b610162565b005b6100e960048036038101906100e49190610360565b61021b565b6040516100f69190610345565b60405180910390f35b60006020528060005260406000206000915090508060000154908060010154908060020160009054906101000a900460ff16905083565b600080600083815260200190815260200160002060020160009054906101000a900460ff169050919050565b60008083815260200190815260200160002060020160009054906101000a900460ff16156101a9578060008084815260200190815260200160002060010181905550610217565b6000604051806060016040528084815260200183815260200160011515815250905080600080858152602001908152602001600020600082015181600001556020820151816001015560408201518160020160006101000a81548160ff021916908315150217905550905050505b5050565b60008060008085815260200190815260200160002060405180606001604052908160008201548152602001600182015481526020016002820160009054906101000a900460ff16151515158152505090508281602001511491505092915050565b600080fd5b6000819050919050565b61029481610281565b811461029f57600080fd5b50565b6000813590506102b18161028b565b92915050565b6000602082840312156102cd576102cc61027c565b5b60006102db848285016102a2565b91505092915050565b6102ed81610281565b82525050565b60008115159050919050565b610308816102f3565b82525050565b600060608201905061032360008301866102e4565b61033060208301856102e4565b61033d60408301846102ff565b949350505050565b600060208201905061035a60008301846102ff565b92915050565b600080604083850312156103775761037661027c565b5b6000610385858286016102a2565b9250506020610396858286016102a2565b915050925092905056fea2646970667358221220dc8ab05923fae09dc429644352b0e4421aeded423d23f92b2a0df19c14525e0b64736f6c63430008130033",
  "immutableReferences": {},
  "source": "// SPDX-License-Identifier: GPL-3.0\r\n\r\npragma solidity >=0.8.19 <0.9.0;\r\n\r\n\r\ncontract auth_symbol{\r\n    struct User {\r\n        uint userId;\r\n        uint symbolId;\r\n        bool exists;\r\n    }\r\n\r\n    mapping(uint => User) public users;\r\n    \r\n    function setSymbol(uint userId, uint symbolId) public {\r\n        if(users[userId].exists) {\r\n            users[userId].symbolId = symbolId;\r\n        }else {\r\n            \r\n            User memory user = User(userId, symbolId, true);\r\n            users[userId] = user;\r\n        }  \r\n    }\r\n\r\n    function checkSymbol(uint userId, uint symbolId) public view returns (bool) {\r\n        User memory user = users[userId];\r\n        return user.symbolId == symbolId;    \r\n    }\r\n\r\n    function userExists(uint userId) public view returns (bool) {\r\n        return users[userId].exists;\r\n    }\r\n}",
  "sourcePath": "/home/reyhan/Masast/web3-node-srv/contracts/auth_symbol.sol",
  "compiler": {
    "name": "solc",
    "version": "0.8.19+commit.7dd6d404.Emscripten.clang"
  },
  "schemaVersion": "3.4.14",
  "updatedAt": "2023-07-21T10:52:00.875Z",
  "networkType": "ethereum",
  "devdoc": {
    "kind": "dev",
    "methods": {},
    "version": 1
  },
  "userdoc": {
    "kind": "user",
    "methods": {},
    "version": 1
  }
}